{
  "_format": "hh-sol-artifact-1",
  "contractName": "MBTCStaking",
  "sourceName": "contracts/MBTCStaking.sol",
  "abi": [
    {
      "inputs": [
        {
          "internalType": "address",
          "name": "_rewardsToken",
          "type": "address"
        },
        {
          "internalType": "address",
          "name": "_mFuelToken",
          "type": "address"
        },
        {
          "internalType": "address",
          "name": "_minerNFT",
          "type": "address"
        },
        {
          "internalType": "address",
          "name": "_poolNFT",
          "type": "address"
        },
        {
          "internalType": "address",
          "name": "_repository",
          "type": "address"
        },
        {
          "internalType": "uint256",
          "name": "_rewardsDuration",
          "type": "uint256"
        }
      ],
      "stateMutability": "nonpayable",
      "type": "constructor"
    },
    {
      "anonymous": false,
      "inputs": [
        {
          "indexed": true,
          "internalType": "address",
          "name": "user",
          "type": "address"
        },
        {
          "indexed": false,
          "internalType": "uint256",
          "name": "id",
          "type": "uint256"
        }
      ],
      "name": "MinerStaked",
      "type": "event"
    },
    {
      "anonymous": false,
      "inputs": [
        {
          "indexed": true,
          "internalType": "address",
          "name": "user",
          "type": "address"
        },
        {
          "indexed": false,
          "internalType": "uint256",
          "name": "id",
          "type": "uint256"
        }
      ],
      "name": "MinerWithdrawn",
      "type": "event"
    },
    {
      "anonymous": false,
      "inputs": [
        {
          "indexed": true,
          "internalType": "address",
          "name": "newOwner",
          "type": "address"
        }
      ],
      "name": "NewOwnershipAccepted",
      "type": "event"
    },
    {
      "anonymous": false,
      "inputs": [
        {
          "indexed": true,
          "internalType": "address",
          "name": "previousOwner",
          "type": "address"
        },
        {
          "indexed": true,
          "internalType": "address",
          "name": "newOwner",
          "type": "address"
        }
      ],
      "name": "OwnershipTransferred",
      "type": "event"
    },
    {
      "anonymous": false,
      "inputs": [
        {
          "indexed": false,
          "internalType": "address",
          "name": "account",
          "type": "address"
        }
      ],
      "name": "Paused",
      "type": "event"
    },
    {
      "anonymous": false,
      "inputs": [
        {
          "indexed": true,
          "internalType": "address",
          "name": "user",
          "type": "address"
        },
        {
          "indexed": false,
          "internalType": "uint256",
          "name": "id",
          "type": "uint256"
        }
      ],
      "name": "PoolStaked",
      "type": "event"
    },
    {
      "anonymous": false,
      "inputs": [
        {
          "indexed": true,
          "internalType": "address",
          "name": "user",
          "type": "address"
        },
        {
          "indexed": false,
          "internalType": "uint256",
          "name": "id",
          "type": "uint256"
        }
      ],
      "name": "PoolWithdrawn",
      "type": "event"
    },
    {
      "anonymous": false,
      "inputs": [
        {
          "indexed": false,
          "internalType": "address",
          "name": "token",
          "type": "address"
        },
        {
          "indexed": false,
          "internalType": "uint256",
          "name": "amount",
          "type": "uint256"
        }
      ],
      "name": "Recovered",
      "type": "event"
    },
    {
      "anonymous": false,
      "inputs": [
        {
          "indexed": false,
          "internalType": "uint256",
          "name": "reward",
          "type": "uint256"
        }
      ],
      "name": "RewardAdded",
      "type": "event"
    },
    {
      "anonymous": false,
      "inputs": [
        {
          "indexed": true,
          "internalType": "address",
          "name": "user",
          "type": "address"
        },
        {
          "indexed": false,
          "internalType": "uint256",
          "name": "minerId",
          "type": "uint256"
        },
        {
          "indexed": false,
          "internalType": "uint256",
          "name": "reward",
          "type": "uint256"
        }
      ],
      "name": "RewardPaid",
      "type": "event"
    },
    {
      "anonymous": false,
      "inputs": [
        {
          "indexed": false,
          "internalType": "uint256",
          "name": "newDuration",
          "type": "uint256"
        }
      ],
      "name": "RewardsDurationUpdated",
      "type": "event"
    },
    {
      "anonymous": false,
      "inputs": [
        {
          "indexed": false,
          "internalType": "address",
          "name": "account",
          "type": "address"
        }
      ],
      "name": "Unpaused",
      "type": "event"
    },
    {
      "inputs": [],
      "name": "NFTMiner",
      "outputs": [
        {
          "internalType": "contract IERC721",
          "name": "",
          "type": "address"
        }
      ],
      "stateMutability": "view",
      "type": "function"
    },
    {
      "inputs": [],
      "name": "NFTPool",
      "outputs": [
        {
          "internalType": "contract IERC721",
          "name": "",
          "type": "address"
        }
      ],
      "stateMutability": "view",
      "type": "function"
    },
    {
      "inputs": [
        {
          "internalType": "address",
          "name": "newOwner",
          "type": "address"
        }
      ],
      "name": "acceptNewOwnership",
      "outputs": [],
      "stateMutability": "nonpayable",
      "type": "function"
    },
    {
      "inputs": [],
      "name": "baseDivider",
      "outputs": [
        {
          "internalType": "uint256",
          "name": "",
          "type": "uint256"
        }
      ],
      "stateMutability": "view",
      "type": "function"
    },
    {
      "inputs": [
        {
          "internalType": "uint256[]",
          "name": "minerIds",
          "type": "uint256[]"
        }
      ],
      "name": "batchGetRewards",
      "outputs": [],
      "stateMutability": "nonpayable",
      "type": "function"
    },
    {
      "inputs": [
        {
          "internalType": "uint256[]",
          "name": "minerIds",
          "type": "uint256[]"
        },
        {
          "internalType": "uint256",
          "name": "poolId",
          "type": "uint256"
        }
      ],
      "name": "batchStakeMiners",
      "outputs": [],
      "stateMutability": "nonpayable",
      "type": "function"
    },
    {
      "inputs": [
        {
          "internalType": "uint256[]",
          "name": "minerIds",
          "type": "uint256[]"
        }
      ],
      "name": "batchWithdrawMiners",
      "outputs": [],
      "stateMutability": "nonpayable",
      "type": "function"
    },
    {
      "inputs": [],
      "name": "deductionCount",
      "outputs": [
        {
          "internalType": "uint256",
          "name": "",
          "type": "uint256"
        }
      ],
      "stateMutability": "view",
      "type": "function"
    },
    {
      "inputs": [
        {
          "internalType": "uint256",
          "name": "minerId",
          "type": "uint256"
        }
      ],
      "name": "earned",
      "outputs": [
        {
          "internalType": "uint256",
          "name": "",
          "type": "uint256"
        }
      ],
      "stateMutability": "view",
      "type": "function"
    },
    {
      "inputs": [],
      "name": "firstEpochRewards",
      "outputs": [
        {
          "internalType": "uint256",
          "name": "",
          "type": "uint256"
        }
      ],
      "stateMutability": "view",
      "type": "function"
    },
    {
      "inputs": [],
      "name": "getAllRewards",
      "outputs": [],
      "stateMutability": "nonpayable",
      "type": "function"
    },
    {
      "inputs": [
        {
          "internalType": "uint256",
          "name": "minerId",
          "type": "uint256"
        }
      ],
      "name": "getReward",
      "outputs": [],
      "stateMutability": "nonpayable",
      "type": "function"
    },
    {
      "inputs": [],
      "name": "getRewardForDuration",
      "outputs": [
        {
          "internalType": "uint256",
          "name": "",
          "type": "uint256"
        }
      ],
      "stateMutability": "view",
      "type": "function"
    },
    {
      "inputs": [
        {
          "internalType": "uint256",
          "name": "minerId",
          "type": "uint256"
        }
      ],
      "name": "hashRateOf",
      "outputs": [
        {
          "internalType": "uint256",
          "name": "",
          "type": "uint256"
        }
      ],
      "stateMutability": "view",
      "type": "function"
    },
    {
      "inputs": [],
      "name": "lastTimeRewardApplicable",
      "outputs": [
        {
          "internalType": "uint256",
          "name": "",
          "type": "uint256"
        }
      ],
      "stateMutability": "view",
      "type": "function"
    },
    {
      "inputs": [],
      "name": "lastUpdateTime",
      "outputs": [
        {
          "internalType": "uint256",
          "name": "",
          "type": "uint256"
        }
      ],
      "stateMutability": "view",
      "type": "function"
    },
    {
      "inputs": [],
      "name": "mBTC",
      "outputs": [
        {
          "internalType": "contract MBTCToken",
          "name": "",
          "type": "address"
        }
      ],
      "stateMutability": "view",
      "type": "function"
    },
    {
      "inputs": [],
      "name": "mFuel",
      "outputs": [
        {
          "internalType": "contract MFuelToken",
          "name": "",
          "type": "address"
        }
      ],
      "stateMutability": "view",
      "type": "function"
    },
    {
      "inputs": [
        {
          "internalType": "uint256",
          "name": "a",
          "type": "uint256"
        },
        {
          "internalType": "uint256",
          "name": "b",
          "type": "uint256"
        }
      ],
      "name": "min",
      "outputs": [
        {
          "internalType": "uint256",
          "name": "",
          "type": "uint256"
        }
      ],
      "stateMutability": "pure",
      "type": "function"
    },
    {
      "inputs": [
        {
          "internalType": "address",
          "name": "owner",
          "type": "address"
        }
      ],
      "name": "minerAmountOf",
      "outputs": [
        {
          "internalType": "uint256",
          "name": "",
          "type": "uint256"
        }
      ],
      "stateMutability": "view",
      "type": "function"
    },
    {
      "inputs": [
        {
          "internalType": "address",
          "name": "owner",
          "type": "address"
        },
        {
          "internalType": "uint256",
          "name": "index",
          "type": "uint256"
        }
      ],
      "name": "minerOfOwnerByIndex",
      "outputs": [
        {
          "internalType": "uint256",
          "name": "",
          "type": "uint256"
        }
      ],
      "stateMutability": "view",
      "type": "function"
    },
    {
      "inputs": [
        {
          "internalType": "uint256",
          "name": "",
          "type": "uint256"
        }
      ],
      "name": "minerRewardPerTokenPaid",
      "outputs": [
        {
          "internalType": "uint256",
          "name": "",
          "type": "uint256"
        }
      ],
      "stateMutability": "view",
      "type": "function"
    },
    {
      "inputs": [
        {
          "internalType": "uint256",
          "name": "",
          "type": "uint256"
        }
      ],
      "name": "minerRewards",
      "outputs": [
        {
          "internalType": "uint256",
          "name": "",
          "type": "uint256"
        }
      ],
      "stateMutability": "view",
      "type": "function"
    },
    {
      "inputs": [
        {
          "internalType": "uint256",
          "name": "",
          "type": "uint256"
        }
      ],
      "name": "nftStakes",
      "outputs": [
        {
          "internalType": "address",
          "name": "creator",
          "type": "address"
        },
        {
          "internalType": "uint256",
          "name": "minerId",
          "type": "uint256"
        },
        {
          "internalType": "uint256",
          "name": "poolId",
          "type": "uint256"
        },
        {
          "internalType": "uint256",
          "name": "hashRateAfterMultiplier",
          "type": "uint256"
        },
        {
          "internalType": "uint256",
          "name": "consumptionAfterMultiplier",
          "type": "uint256"
        },
        {
          "internalType": "uint256",
          "name": "lastUpdateTime",
          "type": "uint256"
        }
      ],
      "stateMutability": "view",
      "type": "function"
    },
    {
      "inputs": [
        {
          "internalType": "address",
          "name": "",
          "type": "address"
        },
        {
          "internalType": "address",
          "name": "",
          "type": "address"
        },
        {
          "internalType": "uint256",
          "name": "",
          "type": "uint256"
        },
        {
          "internalType": "bytes",
          "name": "",
          "type": "bytes"
        }
      ],
      "name": "onERC721Received",
      "outputs": [
        {
          "internalType": "bytes4",
          "name": "",
          "type": "bytes4"
        }
      ],
      "stateMutability": "nonpayable",
      "type": "function"
    },
    {
      "inputs": [],
      "name": "owner",
      "outputs": [
        {
          "internalType": "address",
          "name": "",
          "type": "address"
        }
      ],
      "stateMutability": "view",
      "type": "function"
    },
    {
      "inputs": [],
      "name": "pause",
      "outputs": [],
      "stateMutability": "nonpayable",
      "type": "function"
    },
    {
      "inputs": [],
      "name": "paused",
      "outputs": [
        {
          "internalType": "bool",
          "name": "",
          "type": "bool"
        }
      ],
      "stateMutability": "view",
      "type": "function"
    },
    {
      "inputs": [],
      "name": "periodFinish",
      "outputs": [
        {
          "internalType": "uint256",
          "name": "",
          "type": "uint256"
        }
      ],
      "stateMutability": "view",
      "type": "function"
    },
    {
      "inputs": [
        {
          "internalType": "address",
          "name": "owner",
          "type": "address"
        }
      ],
      "name": "poolAmountOf",
      "outputs": [
        {
          "internalType": "uint256",
          "name": "",
          "type": "uint256"
        }
      ],
      "stateMutability": "view",
      "type": "function"
    },
    {
      "inputs": [
        {
          "internalType": "address",
          "name": "owner",
          "type": "address"
        },
        {
          "internalType": "uint256",
          "name": "index",
          "type": "uint256"
        }
      ],
      "name": "poolOfOwnerByIndex",
      "outputs": [
        {
          "internalType": "uint256",
          "name": "",
          "type": "uint256"
        }
      ],
      "stateMutability": "view",
      "type": "function"
    },
    {
      "inputs": [
        {
          "internalType": "address",
          "name": "tokenAddress",
          "type": "address"
        },
        {
          "internalType": "uint256",
          "name": "tokenAmount",
          "type": "uint256"
        }
      ],
      "name": "recoverERC20",
      "outputs": [],
      "stateMutability": "nonpayable",
      "type": "function"
    },
    {
      "inputs": [],
      "name": "renounceOwnership",
      "outputs": [],
      "stateMutability": "nonpayable",
      "type": "function"
    },
    {
      "inputs": [],
      "name": "repository",
      "outputs": [
        {
          "internalType": "contract INFTRepository",
          "name": "",
          "type": "address"
        }
      ],
      "stateMutability": "view",
      "type": "function"
    },
    {
      "inputs": [],
      "name": "rewardPerToken",
      "outputs": [
        {
          "internalType": "uint256",
          "name": "",
          "type": "uint256"
        }
      ],
      "stateMutability": "view",
      "type": "function"
    },
    {
      "inputs": [],
      "name": "rewardPerTokenStored",
      "outputs": [
        {
          "internalType": "uint256",
          "name": "",
          "type": "uint256"
        }
      ],
      "stateMutability": "view",
      "type": "function"
    },
    {
      "inputs": [],
      "name": "rewardRate",
      "outputs": [
        {
          "internalType": "uint256",
          "name": "",
          "type": "uint256"
        }
      ],
      "stateMutability": "view",
      "type": "function"
    },
    {
      "inputs": [],
      "name": "rewardsDuration",
      "outputs": [
        {
          "internalType": "uint256",
          "name": "",
          "type": "uint256"
        }
      ],
      "stateMutability": "view",
      "type": "function"
    },
    {
      "inputs": [
        {
          "internalType": "uint256",
          "name": "_rewardsDuration",
          "type": "uint256"
        }
      ],
      "name": "setRewardsDuration",
      "outputs": [],
      "stateMutability": "nonpayable",
      "type": "function"
    },
    {
      "inputs": [
        {
          "internalType": "uint256",
          "name": "minerId",
          "type": "uint256"
        },
        {
          "internalType": "uint256",
          "name": "poolId",
          "type": "uint256"
        }
      ],
      "name": "stakeMiner",
      "outputs": [],
      "stateMutability": "nonpayable",
      "type": "function"
    },
    {
      "inputs": [
        {
          "internalType": "uint256",
          "name": "id",
          "type": "uint256"
        }
      ],
      "name": "stakePool",
      "outputs": [],
      "stateMutability": "nonpayable",
      "type": "function"
    },
    {
      "inputs": [
        {
          "internalType": "uint256",
          "name": "minerId",
          "type": "uint256"
        }
      ],
      "name": "stakingInformation",
      "outputs": [
        {
          "internalType": "uint256",
          "name": "mBTCEarned",
          "type": "uint256"
        },
        {
          "internalType": "uint256",
          "name": "poolId",
          "type": "uint256"
        },
        {
          "internalType": "uint256",
          "name": "hashRate",
          "type": "uint256"
        },
        {
          "internalType": "uint256",
          "name": "consumption",
          "type": "uint256"
        },
        {
          "internalType": "uint256",
          "name": "lastUpdate",
          "type": "uint256"
        }
      ],
      "stateMutability": "view",
      "type": "function"
    },
    {
      "inputs": [],
      "name": "start",
      "outputs": [],
      "stateMutability": "nonpayable",
      "type": "function"
    },
    {
      "inputs": [],
      "name": "totalHashRate",
      "outputs": [
        {
          "internalType": "uint256",
          "name": "",
          "type": "uint256"
        }
      ],
      "stateMutability": "view",
      "type": "function"
    },
    {
      "inputs": [
        {
          "internalType": "address",
          "name": "newOwner",
          "type": "address"
        }
      ],
      "name": "transferOwnership",
      "outputs": [],
      "stateMutability": "nonpayable",
      "type": "function"
    },
    {
      "inputs": [],
      "name": "unpause",
      "outputs": [],
      "stateMutability": "nonpayable",
      "type": "function"
    },
    {
      "inputs": [
        {
          "internalType": "uint256",
          "name": "",
          "type": "uint256"
        }
      ],
      "name": "volumeUsed",
      "outputs": [
        {
          "internalType": "uint256",
          "name": "",
          "type": "uint256"
        }
      ],
      "stateMutability": "view",
      "type": "function"
    },
    {
      "inputs": [],
      "name": "withdrawAllMiners",
      "outputs": [],
      "stateMutability": "nonpayable",
      "type": "function"
    },
    {
      "inputs": [
        {
          "internalType": "uint256",
          "name": "minerId",
          "type": "uint256"
        }
      ],
      "name": "withdrawMiner",
      "outputs": [],
      "stateMutability": "nonpayable",
      "type": "function"
    },
    {
      "inputs": [
        {
          "internalType": "uint256",
          "name": "id",
          "type": "uint256"
        }
      ],
      "name": "withdrawPool",
      "outputs": [],
      "stateMutability": "nonpayable",
      "type": "function"
    }
  ],
  "bytecode": "0x608060405260006009556000600a556000600b556064600e556000600f556a08b200a96f8d058a0000006010553480156200003957600080fd5b506040516200572338038062005723833981810160405260c08110156200005f57600080fd5b8101908080519060200190929190805190602001909291908051906020019092919080519060200190929190805190602001909291908051906020019092919050505060016000819055506000620000bc620002ce60201b60201c565b905080600160006101000a81548173ffffffffffffffffffffffffffffffffffffffff021916908373ffffffffffffffffffffffffffffffffffffffff1602179055508073ffffffffffffffffffffffffffffffffffffffff16600073ffffffffffffffffffffffffffffffffffffffff167f8be0079c531659141344cd1fd0a4f28419497f9722a3daafe3b4186f6b6457e060405160405180910390a3506000600260146101000a81548160ff02191690831515021790555085600560006101000a81548173ffffffffffffffffffffffffffffffffffffffff021916908373ffffffffffffffffffffffffffffffffffffffff16021790555084600660006101000a81548173ffffffffffffffffffffffffffffffffffffffff021916908373ffffffffffffffffffffffffffffffffffffffff16021790555083600760006101000a81548173ffffffffffffffffffffffffffffffffffffffff021916908373ffffffffffffffffffffffffffffffffffffffff16021790555082600860006101000a81548173ffffffffffffffffffffffffffffffffffffffff021916908373ffffffffffffffffffffffffffffffffffffffff16021790555081600460006101000a81548173ffffffffffffffffffffffffffffffffffffffff021916908373ffffffffffffffffffffffffffffffffffffffff16021790555080600b81905550505050505050620002d6565b600033905090565b61543d80620002e66000396000f3fe608060405234801561001057600080fd5b50600436106102d65760003560e01c80637e13a87511610182578063c8f33c91116100e9578063e1b4db71116100a2578063ef910a0a1161007c578063ef910a0a14610e18578063f199292814610e62578063f2fde38b14610e90578063f6bf08ea14610ed4576102d6565b8063e1b4db7114610d92578063e9176c6014610db0578063ebe2b12b14610dfa576102d6565b8063c8f33c9114610c8a578063cc1a378f14610ca8578063cd3daf9d14610cd6578063d9a71af614610cf4578063da3b6b3514610d56578063df136d6514610d74576102d6565b806390780bae1161013b57806390780bae14610ab557806393e60a7d14610af957806394eae95814610b5b578063bcead21814610ba5578063be9a655514610c36578063c7a2edaf14610c40576102d6565b80637e13a8751461098557806380faa57d146109c75780638456cb59146109e55780638980f11f146109ef5780638da5cb5b14610a3d5780638e90f96814610a87576102d6565b8063487b2bc311610241578063600ac8a5116101fa578063715018a6116101d4578063715018a6146108f35780637ae2b5c7146108fd5780637b0a47ee146109495780637d1f171114610967576102d6565b8063600ac8a5146108215780636d00557c146108635780636fdd2a5d1461089b576102d6565b8063487b2bc3146106ab5780634c034ea9146107035780634d6ed8c4146107315780635242d76d1461077357806353b6eb99146107bd5780635c975abb146107ff576102d6565b80631e7e0659116102935780631e7e0659146105845780632de09889146105e257806331d1b2201461065b578063386a9525146106795780633f4ba83a1461069757806345b35f56146106a1576102d6565b806309e90f1d146102db57806309e9a9611461035e57806313f9c71214610368578063150b7a02146103e15780631c1f78eb146105385780631c4b774b14610556575b600080fd5b61035c600480360360408110156102f157600080fd5b810190808035906020019064010000000081111561030e57600080fd5b82018360208201111561032057600080fd5b8035906020019184602083028401116401000000008311171561034257600080fd5b909192939192939080359060200190929190505050610f16565b005b610366610f56565b005b6103df6004803603602081101561037e57600080fd5b810190808035906020019064010000000081111561039b57600080fd5b8201836020820111156103ad57600080fd5b803590602001918460208302840111640100000000831117156103cf57600080fd5b9091929391929390505050610f95565b005b6104e4600480360360808110156103f757600080fd5b81019080803573ffffffffffffffffffffffffffffffffffffffff169060200190929190803573ffffffffffffffffffffffffffffffffffffffff169060200190929190803590602001909291908035906020019064010000000081111561045e57600080fd5b82018360208201111561047057600080fd5b8035906020019184600183028401116401000000008311171561049257600080fd5b91908080601f016020809104026020016040519081016040528093929190818152602001838380828437600081840152601f19601f820116905080830192505050505050509192919290505050610fd3565b60405180827bffffffffffffffffffffffffffffffffffffffffffffffffffffffff19167bffffffffffffffffffffffffffffffffffffffffffffffffffffffff1916815260200191505060405180910390f35b610540610fe7565b6040518082815260200191505060405180910390f35b6105826004803603602081101561056c57600080fd5b8101908080359060200190929190505050611005565b005b6105b06004803603602081101561059a57600080fd5b81019080803590602001909291905050506119f1565b604051808681526020018581526020018481526020018381526020018281526020019550505050505060405180910390f35b610659600480360360208110156105f857600080fd5b810190808035906020019064010000000081111561061557600080fd5b82018360208201111561062757600080fd5b8035906020019184602083028401116401000000008311171561064957600080fd5b9091929391929390505050611a4f565b005b610663611a8d565b6040518082815260200191505060405180910390f35b610681611a93565b6040518082815260200191505060405180910390f35b61069f611a99565b005b6106a9611bef565b005b6106ed600480360360208110156106c157600080fd5b81019080803573ffffffffffffffffffffffffffffffffffffffff169060200190929190505050611c2d565b6040518082815260200191505060405180910390f35b61072f6004803603602081101561071957600080fd5b8101908080359060200190929190505050611d02565b005b61075d6004803603602081101561074757600080fd5b8101908080359060200190929190505050611fc7565b6040518082815260200191505060405180910390f35b61077b612061565b604051808273ffffffffffffffffffffffffffffffffffffffff1673ffffffffffffffffffffffffffffffffffffffff16815260200191505060405180910390f35b6107e9600480360360208110156107d357600080fd5b8101908080359060200190929190505050612087565b6040518082815260200191505060405180910390f35b6108076120a4565b604051808215151515815260200191505060405180910390f35b61084d6004803603602081101561083757600080fd5b81019080803590602001909291905050506120bb565b6040518082815260200191505060405180910390f35b6108996004803603604081101561087957600080fd5b8101908080359060200190929190803590602001909291905050506120d3565b005b6108dd600480360360208110156108b157600080fd5b81019080803573ffffffffffffffffffffffffffffffffffffffff169060200190929190505050612a1a565b6040518082815260200191505060405180910390f35b6108fb612aef565b005b6109336004803603604081101561091357600080fd5b810190808035906020019092919080359060200190929190505050612c7a565b6040518082815260200191505060405180910390f35b610951612c93565b6040518082815260200191505060405180910390f35b61096f612c99565b6040518082815260200191505060405180910390f35b6109b16004803603602081101561099b57600080fd5b8101908080359060200190929190505050612c9f565b6040518082815260200191505060405180910390f35b6109cf612cb7565b6040518082815260200191505060405180910390f35b6109ed612cca565b005b610a3b60048036036040811015610a0557600080fd5b81019080803573ffffffffffffffffffffffffffffffffffffffff16906020019092919080359060200190929190505050612e21565b005b610a456130cb565b604051808273ffffffffffffffffffffffffffffffffffffffff1673ffffffffffffffffffffffffffffffffffffffff16815260200191505060405180910390f35b610ab360048036036020811015610a9d57600080fd5b81019080803590602001909291905050506130f5565b005b610af760048036036020811015610acb57600080fd5b81019080803573ffffffffffffffffffffffffffffffffffffffff169060200190929190505050613520565b005b610b4560048036036040811015610b0f57600080fd5b81019080803573ffffffffffffffffffffffffffffffffffffffff169060200190929190803590602001909291905050506136f2565b6040518082815260200191505060405180910390f35b610b6361374d565b604051808273ffffffffffffffffffffffffffffffffffffffff1673ffffffffffffffffffffffffffffffffffffffff16815260200191505060405180910390f35b610bd160048036036020811015610bbb57600080fd5b8101908080359060200190929190505050613773565b604051808773ffffffffffffffffffffffffffffffffffffffff1673ffffffffffffffffffffffffffffffffffffffff168152602001868152602001858152602001848152602001838152602001828152602001965050505050505060405180910390f35b610c3e6137cf565b005b610c48613a61565b604051808273ffffffffffffffffffffffffffffffffffffffff1673ffffffffffffffffffffffffffffffffffffffff16815260200191505060405180910390f35b610c92613a87565b6040518082815260200191505060405180910390f35b610cd460048036036020811015610cbe57600080fd5b8101908080359060200190929190505050613a8d565b005b610cde613bf4565b6040518082815260200191505060405180910390f35b610d4060048036036040811015610d0a57600080fd5b81019080803573ffffffffffffffffffffffffffffffffffffffff16906020019092919080359060200190929190505050613c82565b6040518082815260200191505060405180910390f35b610d5e613cdd565b6040518082815260200191505060405180910390f35b610d7c613ce7565b6040518082815260200191505060405180910390f35b610d9a613ced565b6040518082815260200191505060405180910390f35b610db8613cf3565b604051808273ffffffffffffffffffffffffffffffffffffffff1673ffffffffffffffffffffffffffffffffffffffff16815260200191505060405180910390f35b610e02613d19565b6040518082815260200191505060405180910390f35b610e20613d1f565b604051808273ffffffffffffffffffffffffffffffffffffffff1673ffffffffffffffffffffffffffffffffffffffff16815260200191505060405180910390f35b610e8e60048036036020811015610e7857600080fd5b8101908080359060200190929190505050613d45565b005b610ed260048036036020811015610ea657600080fd5b81019080803573ffffffffffffffffffffffffffffffffffffffff1690602001909291905050506140f9565b005b610f0060048036036020811015610eea57600080fd5b8101908080359060200190929190505050614309565b6040518082815260200191505060405180910390f35b60008090505b83839050811015610f5057610f43848483818110610f3657fe5b90506020020135836120d3565b8080600101915050610f1c565b50505050565b6000610f6133611c2d565b905060008090505b81811015610f9157610f84610f7f3360006136f2565b613d45565b8080600101915050610f69565b5050565b60008090505b82829050811015610fce57610fc1838383818110610fb557fe5b90506020020135613d45565b8080600101915050610f9b565b505050565b600063150b7a0260e01b9050949350505050565b6000611000600b54600a5461432190919063ffffffff16565b905090565b6002600054141561107e576040517f08c379a000000000000000000000000000000000000000000000000000000000815260040180806020018281038252601f8152602001807f5265656e7472616e637947756172643a207265656e7472616e742063616c6c0081525060200191505060405180910390fd5b60026000819055508061108f613bf4565b600d8190555061109d612cb7565b600c81905550600081146110e6576110b481611fc7565b601a600083815260200190815260200160002081905550600d5460196000838152602001908152602001600020819055505b600954421115611152576111066001600f546143a790919063ffffffff16565b600f81905550600060105490506000600190505b600f5481116111465761113760028361442f90919063ffffffff16565b9150808060010191505061111a565b5061115081614479565b505b3373ffffffffffffffffffffffffffffffffffffffff16611172836145c2565b73ffffffffffffffffffffffffffffffffffffffff16146111de576040517f08c379a00000000000000000000000000000000000000000000000000000000081526004018080602001828103825260218152602001806153266021913960400191505060405180910390fd5b6000601a600084815260200190815260200160002054905060008111156119e457600060036000858152602001908152602001600020905060006112f0600e546112e2600460009054906101000a900473ffffffffffffffffffffffffffffffffffffffff1673ffffffffffffffffffffffffffffffffffffffff1663112d94eb86600201546040518263ffffffff1660e01b81526004018082815260200191505060206040518083038186803b15801561129857600080fd5b505afa1580156112ac573d6000803e3d6000fd5b505050506040513d60208110156112c257600080fd5b81019080805190602001909291905050508661432190919063ffffffff16565b61442f90919063ffffffff16565b9050600061130b83600501544261461690919063ffffffff16565b90506000611354610e10611346670de0b6b3a764000061133888600401548761432190919063ffffffff16565b61432190919063ffffffff16565b61442f90919063ffffffff16565b90506000611430600e54611422600460009054906101000a900473ffffffffffffffffffffffffffffffffffffffff1673ffffffffffffffffffffffffffffffffffffffff1663383fe3e689600201546040518263ffffffff1660e01b81526004018082815260200191505060206040518083038186803b1580156113d857600080fd5b505afa1580156113ec573d6000803e3d6000fd5b505050506040513d602081101561140257600080fd5b81019080805190602001909291905050508561432190919063ffffffff16565b61442f90919063ffffffff16565b905042856005018190555060008073ffffffffffffffffffffffffffffffffffffffff166114618760020154614660565b73ffffffffffffffffffffffffffffffffffffffff1614611490576114898660020154614660565b905061149d565b61149a6001614660565b90505b600660009054906101000a900473ffffffffffffffffffffffffffffffffffffffff1673ffffffffffffffffffffffffffffffffffffffff166323b872dd33836114f0868861461690919063ffffffff16565b6040518463ffffffff1660e01b8152600401808473ffffffffffffffffffffffffffffffffffffffff1673ffffffffffffffffffffffffffffffffffffffff1681526020018373ffffffffffffffffffffffffffffffffffffffff1673ffffffffffffffffffffffffffffffffffffffff1681526020018281526020019350505050602060405180830381600087803b15801561158c57600080fd5b505af11580156115a0573d6000803e3d6000fd5b505050506040513d60208110156115b657600080fd5b810190808051906020019092919050505050600660009054906101000a900473ffffffffffffffffffffffffffffffffffffffff1673ffffffffffffffffffffffffffffffffffffffff166323b872dd3330856040518463ffffffff1660e01b8152600401808473ffffffffffffffffffffffffffffffffffffffff1673ffffffffffffffffffffffffffffffffffffffff1681526020018373ffffffffffffffffffffffffffffffffffffffff1673ffffffffffffffffffffffffffffffffffffffff1681526020018281526020019350505050602060405180830381600087803b1580156116a557600080fd5b505af11580156116b9573d6000803e3d6000fd5b505050506040513d60208110156116cf57600080fd5b810190808051906020019092919050505050600660009054906101000a900473ffffffffffffffffffffffffffffffffffffffff1673ffffffffffffffffffffffffffffffffffffffff166342966c68836040518263ffffffff1660e01b815260040180828152602001915050602060405180830381600087803b15801561175657600080fd5b505af115801561176a573d6000803e3d6000fd5b505050506040513d602081101561178057600080fd5b8101908080519060200190929190505050506000601a60008b815260200190815260200160002081905550600560009054906101000a900473ffffffffffffffffffffffffffffffffffffffff1673ffffffffffffffffffffffffffffffffffffffff1663a9059cbb336117fd888b61461690919063ffffffff16565b6040518363ffffffff1660e01b8152600401808373ffffffffffffffffffffffffffffffffffffffff1673ffffffffffffffffffffffffffffffffffffffff16815260200182815260200192505050602060405180830381600087803b15801561186657600080fd5b505af115801561187a573d6000803e3d6000fd5b505050506040513d602081101561189057600080fd5b810190808051906020019092919050505050600560009054906101000a900473ffffffffffffffffffffffffffffffffffffffff1673ffffffffffffffffffffffffffffffffffffffff1663a9059cbb82876040518363ffffffff1660e01b8152600401808373ffffffffffffffffffffffffffffffffffffffff1673ffffffffffffffffffffffffffffffffffffffff16815260200182815260200192505050602060405180830381600087803b15801561194b57600080fd5b505af115801561195f573d6000803e3d6000fd5b505050506040513d602081101561197557600080fd5b8101908080519060200190929190505050503373ffffffffffffffffffffffffffffffffffffffff167fd6f2c8500df5b44f11e9e48b91ff9f1b9d81bc496d55570c2b1b75bf65243f518a89604051808381526020018281526020019250505060405180910390a25050505050505b5050600160008190555050565b600080600080600080600360008881526020019081526020016000209050611a1887611fc7565b9550806002015494508060030154935080600401549250806005015491508585858585955095509550955095505091939590929450565b60008090505b82829050811015611a8857611a7b838383818110611a6f57fe5b90506020020135611005565b8080600101915050611a55565b505050565b600f5481565b600b5481565b611aa16146b4565b73ffffffffffffffffffffffffffffffffffffffff16600160009054906101000a900473ffffffffffffffffffffffffffffffffffffffff1673ffffffffffffffffffffffffffffffffffffffff1614611b63576040517f08c379a00000000000000000000000000000000000000000000000000000000081526004018080602001828103825260208152602001807f4f776e61626c653a2063616c6c6572206973206e6f7420746865206f776e657281525060200191505060405180910390fd5b600260149054906101000a900460ff16611be5576040517f08c379a00000000000000000000000000000000000000000000000000000000081526004018080602001828103825260148152602001807f5061757361626c653a206e6f742070617573656400000000000000000000000081525060200191505060405180910390fd5b611bed6146bc565b565b6000611bfa33611c2d565b905060008090505b81811015611c2957611c1c611c1733836136f2565b611005565b8080600101915050611c02565b5050565b60008073ffffffffffffffffffffffffffffffffffffffff168273ffffffffffffffffffffffffffffffffffffffff161415611cb4576040517f08c379a000000000000000000000000000000000000000000000000000000000815260040180806020018281038252602b8152602001806153b9602b913960400191505060405180910390fd5b611cfb601160008473ffffffffffffffffffffffffffffffffffffffff1673ffffffffffffffffffffffffffffffffffffffff1681526020019081526020016000206147c5565b9050919050565b60026000541415611d7b576040517f08c379a000000000000000000000000000000000000000000000000000000000815260040180806020018281038252601f8152602001807f5265656e7472616e637947756172643a207265656e7472616e742063616c6c0081525060200191505060405180910390fd5b60026000819055503373ffffffffffffffffffffffffffffffffffffffff16611da382614660565b73ffffffffffffffffffffffffffffffffffffffff1614611e0f576040517f08c379a00000000000000000000000000000000000000000000000000000000081526004018080602001828103825260218152602001806153266021913960400191505060405180910390fd5b600860009054906101000a900473ffffffffffffffffffffffffffffffffffffffff1673ffffffffffffffffffffffffffffffffffffffff166342842e0e3033846040518463ffffffff1660e01b8152600401808473ffffffffffffffffffffffffffffffffffffffff1673ffffffffffffffffffffffffffffffffffffffff1681526020018373ffffffffffffffffffffffffffffffffffffffff1673ffffffffffffffffffffffffffffffffffffffff1681526020018281526020019350505050600060405180830381600087803b158015611eec57600080fd5b505af1158015611f00573d6000803e3d6000fd5b50505050611f5581601460003373ffffffffffffffffffffffffffffffffffffffff1673ffffffffffffffffffffffffffffffffffffffff1681526020019081526020016000206147da90919063ffffffff16565b50611f6d81600060156147f49092919063ffffffff16565b503373ffffffffffffffffffffffffffffffffffffffff167f6f07e6169c1653554eb707b6f6cd8f7ccf9cc29e54a0d8a71d9d5867d2057ac2826040518082815260200191505060405180910390a2600160008190555050565b600061205a601a60008481526020019081526020016000205461204c670de0b6b3a764000061203e61201c601960008981526020019081526020016000205461200e613bf4565b61461690919063ffffffff16565b601860008981526020019081526020016000205461432190919063ffffffff16565b61442f90919063ffffffff16565b6143a790919063ffffffff16565b9050919050565b600760009054906101000a900473ffffffffffffffffffffffffffffffffffffffff1681565b600060186000838152602001908152602001600020549050919050565b6000600260149054906101000a900460ff16905090565b60196020528060005260406000206000915090505481565b600260149054906101000a900460ff1615612156576040517f08c379a00000000000000000000000000000000000000000000000000000000081526004018080602001828103825260108152602001807f5061757361626c653a207061757365640000000000000000000000000000000081525060200191505060405180910390fd5b8161215f613bf4565b600d8190555061216d612cb7565b600c81905550600081146121b65761218481611fc7565b601a600083815260200190815260200160002081905550600d5460196000838152602001908152602001600020819055505b6000600760009054906101000a900473ffffffffffffffffffffffffffffffffffffffff1673ffffffffffffffffffffffffffffffffffffffff1663e985e9c533306040518363ffffffff1660e01b8152600401808373ffffffffffffffffffffffffffffffffffffffff1673ffffffffffffffffffffffffffffffffffffffff1681526020018273ffffffffffffffffffffffffffffffffffffffff1673ffffffffffffffffffffffffffffffffffffffff1681526020019250505060206040518083038186803b15801561228b57600080fd5b505afa15801561229f573d6000803e3d6000fd5b505050506040513d60208110156122b557600080fd5b810190808051906020019092919050505090506001151581151514612325576040517f08c379a00000000000000000000000000000000000000000000000000000000081526004018080602001828103825260248152602001806153476024913960400191505060405180910390fd5b600061233084614660565b9050600073ffffffffffffffffffffffffffffffffffffffff168173ffffffffffffffffffffffffffffffffffffffff1614156123d5576040517f08c379a00000000000000000000000000000000000000000000000000000000081526004018080602001828103825260108152602001807f706f6f6c4964206e6f742065786973740000000000000000000000000000000081525060200191505060405180910390fd5b6000600460009054906101000a900473ffffffffffffffffffffffffffffffffffffffff1673ffffffffffffffffffffffffffffffffffffffff1663a136aadc876040518263ffffffff1660e01b81526004018082815260200191505060206040518083038186803b15801561244a57600080fd5b505afa15801561245e573d6000803e3d6000fd5b505050506040513d602081101561247457600080fd5b8101908080519060200190929190505050905060008114156124fe576040517f08c379a00000000000000000000000000000000000000000000000000000000081526004018080602001828103825260158152602001807f5374616b696e673a204964206e6f74206578697374000000000000000000000081525060200191505060405180910390fd5b6000600460009054906101000a900473ffffffffffffffffffffffffffffffffffffffff1673ffffffffffffffffffffffffffffffffffffffff1663bec3fbba886040518263ffffffff1660e01b81526004018082815260200191505060206040518083038186803b15801561257357600080fd5b505afa158015612587573d6000803e3d6000fd5b505050506040513d602081101561259d57600080fd5b810190808051906020019092919050505090506000600460009054906101000a900473ffffffffffffffffffffffffffffffffffffffff1673ffffffffffffffffffffffffffffffffffffffff166336f37934886040518263ffffffff1660e01b81526004018082815260200191505060206040518083038186803b15801561262557600080fd5b505afa158015612639573d6000803e3d6000fd5b505050506040513d602081101561264f57600080fd5b81019080805190602001909291905050509050600061266e8489614829565b9050600061267c848a6149e3565b905060006126a76001601b60008d8152602001908152602001600020546143a790919063ffffffff16565b90508381111561271f576040517f08c379a000000000000000000000000000000000000000000000000000000000815260040180806020018281038252600c8152602001807f706f6f6c2069732066756c6c000000000000000000000000000000000000000081525060200191505060405180910390fd5b6040518060c001604052803373ffffffffffffffffffffffffffffffffffffffff1681526020018c81526020018b815260200184815260200183815260200142815250600360008d815260200190815260200160002060008201518160000160006101000a81548173ffffffffffffffffffffffffffffffffffffffff021916908373ffffffffffffffffffffffffffffffffffffffff1602179055506020820151816001015560408201518160020155606082015181600301556080820151816004015560a08201518160050155905050600760009054906101000a900473ffffffffffffffffffffffffffffffffffffffff1673ffffffffffffffffffffffffffffffffffffffff166342842e0e33308e6040518463ffffffff1660e01b8152600401808473ffffffffffffffffffffffffffffffffffffffff1673ffffffffffffffffffffffffffffffffffffffff1681526020018373ffffffffffffffffffffffffffffffffffffffff1673ffffffffffffffffffffffffffffffffffffffff1681526020018281526020019350505050600060405180830381600087803b1580156128ce57600080fd5b505af11580156128e2573d6000803e3d6000fd5b5050505080601b60008c81526020019081526020016000208190555061294f8b601160003373ffffffffffffffffffffffffffffffffffffffff1673ffffffffffffffffffffffffffffffffffffffff168152602001908152602001600020614b9d90919063ffffffff16565b506129668b3360126147f49092919063ffffffff16565b5061297c836017546143a790919063ffffffff16565b6017819055506129a883601860008e8152602001908152602001600020546143a790919063ffffffff16565b601860008d8152602001908152602001600020819055503373ffffffffffffffffffffffffffffffffffffffff167f5408ca1c29294bf9f0507da9339ae5f278c7e035e9bba211e747082f8f244b488c6040518082815260200191505060405180910390a25050505050505050505050565b60008073ffffffffffffffffffffffffffffffffffffffff168273ffffffffffffffffffffffffffffffffffffffff161415612aa1576040517f08c379a000000000000000000000000000000000000000000000000000000000815260040180806020018281038252602b8152602001806153b9602b913960400191505060405180910390fd5b612ae8601460008473ffffffffffffffffffffffffffffffffffffffff1673ffffffffffffffffffffffffffffffffffffffff1681526020019081526020016000206147c5565b9050919050565b612af76146b4565b73ffffffffffffffffffffffffffffffffffffffff16600160009054906101000a900473ffffffffffffffffffffffffffffffffffffffff1673ffffffffffffffffffffffffffffffffffffffff1614612bb9576040517f08c379a00000000000000000000000000000000000000000000000000000000081526004018080602001828103825260208152602001807f4f776e61626c653a2063616c6c6572206973206e6f7420746865206f776e657281525060200191505060405180910390fd5b600073ffffffffffffffffffffffffffffffffffffffff16600160009054906101000a900473ffffffffffffffffffffffffffffffffffffffff1673ffffffffffffffffffffffffffffffffffffffff167f8be0079c531659141344cd1fd0a4f28419497f9722a3daafe3b4186f6b6457e060405160405180910390a36000600160006101000a81548173ffffffffffffffffffffffffffffffffffffffff021916908373ffffffffffffffffffffffffffffffffffffffff160217905550565b6000818310612c895781612c8b565b825b905092915050565b600a5481565b60105481565b601b6020528060005260406000206000915090505481565b6000612cc542600954612c7a565b905090565b612cd26146b4565b73ffffffffffffffffffffffffffffffffffffffff16600160009054906101000a900473ffffffffffffffffffffffffffffffffffffffff1673ffffffffffffffffffffffffffffffffffffffff1614612d94576040517f08c379a00000000000000000000000000000000000000000000000000000000081526004018080602001828103825260208152602001807f4f776e61626c653a2063616c6c6572206973206e6f7420746865206f776e657281525060200191505060405180910390fd5b600260149054906101000a900460ff1615612e17576040517f08c379a00000000000000000000000000000000000000000000000000000000081526004018080602001828103825260108152602001807f5061757361626c653a207061757365640000000000000000000000000000000081525060200191505060405180910390fd5b612e1f614bb7565b565b612e296146b4565b73ffffffffffffffffffffffffffffffffffffffff16600160009054906101000a900473ffffffffffffffffffffffffffffffffffffffff1673ffffffffffffffffffffffffffffffffffffffff1614612eeb576040517f08c379a00000000000000000000000000000000000000000000000000000000081526004018080602001828103825260208152602001807f4f776e61626c653a2063616c6c6572206973206e6f7420746865206f776e657281525060200191505060405180910390fd5b600560009054906101000a900473ffffffffffffffffffffffffffffffffffffffff1673ffffffffffffffffffffffffffffffffffffffff168273ffffffffffffffffffffffffffffffffffffffff161415612f92576040517f08c379a000000000000000000000000000000000000000000000000000000000815260040180806020018281038252602d81526020018061538c602d913960400191505060405180910390fd5b8173ffffffffffffffffffffffffffffffffffffffff1663a9059cbb612fb66130cb565b836040518363ffffffff1660e01b8152600401808373ffffffffffffffffffffffffffffffffffffffff1673ffffffffffffffffffffffffffffffffffffffff16815260200182815260200192505050602060405180830381600087803b15801561302057600080fd5b505af1158015613034573d6000803e3d6000fd5b505050506040513d602081101561304a57600080fd5b8101908080519060200190929190505050507f8c1256b8896378cd5044f80c202f9772b9d77dc85c8a6eb51967210b09bfaa288282604051808373ffffffffffffffffffffffffffffffffffffffff1673ffffffffffffffffffffffffffffffffffffffff1681526020018281526020019250505060405180910390a15050565b6000600160009054906101000a900473ffffffffffffffffffffffffffffffffffffffff16905090565b6002600054141561316e576040517f08c379a000000000000000000000000000000000000000000000000000000000815260040180806020018281038252601f8152602001807f5265656e7472616e637947756172643a207265656e7472616e742063616c6c0081525060200191505060405180910390fd5b6002600081905550600260149054906101000a900460ff16156131f9576040517f08c379a00000000000000000000000000000000000000000000000000000000081526004018080602001828103825260108152602001807f5061757361626c653a207061757365640000000000000000000000000000000081525060200191505060405180910390fd5b6000600860009054906101000a900473ffffffffffffffffffffffffffffffffffffffff1673ffffffffffffffffffffffffffffffffffffffff1663e985e9c533306040518363ffffffff1660e01b8152600401808373ffffffffffffffffffffffffffffffffffffffff1673ffffffffffffffffffffffffffffffffffffffff1681526020018273ffffffffffffffffffffffffffffffffffffffff1673ffffffffffffffffffffffffffffffffffffffff1681526020019250505060206040518083038186803b1580156132ce57600080fd5b505afa1580156132e2573d6000803e3d6000fd5b505050506040513d60208110156132f857600080fd5b810190808051906020019092919050505090506001151581151514613368576040517f08c379a00000000000000000000000000000000000000000000000000000000081526004018080602001828103825260248152602001806153026024913960400191505060405180910390fd5b600860009054906101000a900473ffffffffffffffffffffffffffffffffffffffff1673ffffffffffffffffffffffffffffffffffffffff166342842e0e3330856040518463ffffffff1660e01b8152600401808473ffffffffffffffffffffffffffffffffffffffff1673ffffffffffffffffffffffffffffffffffffffff1681526020018373ffffffffffffffffffffffffffffffffffffffff1673ffffffffffffffffffffffffffffffffffffffff1681526020018281526020019350505050600060405180830381600087803b15801561344557600080fd5b505af1158015613459573d6000803e3d6000fd5b505050506134ae82601460003373ffffffffffffffffffffffffffffffffffffffff1673ffffffffffffffffffffffffffffffffffffffff168152602001908152602001600020614b9d90919063ffffffff16565b506134c5823360156147f49092919063ffffffff16565b503373ffffffffffffffffffffffffffffffffffffffff167f69ed886fd56d67bed123e4824320aa1adbe7070574500ba435184483989d21e1836040518082815260200191505060405180910390a250600160008190555050565b6135286146b4565b73ffffffffffffffffffffffffffffffffffffffff16600260009054906101000a900473ffffffffffffffffffffffffffffffffffffffff1673ffffffffffffffffffffffffffffffffffffffff1614156135ce576040517f08c379a00000000000000000000000000000000000000000000000000000000081526004018080602001828103825260248152602001806153e46024913960400191505060405180910390fd5b8073ffffffffffffffffffffffffffffffffffffffff16600160009054906101000a900473ffffffffffffffffffffffffffffffffffffffff1673ffffffffffffffffffffffffffffffffffffffff167f8be0079c531659141344cd1fd0a4f28419497f9722a3daafe3b4186f6b6457e060405160405180910390a3600260009054906101000a900473ffffffffffffffffffffffffffffffffffffffff16600160006101000a81548173ffffffffffffffffffffffffffffffffffffffff021916908373ffffffffffffffffffffffffffffffffffffffff1602179055506000600260006101000a81548173ffffffffffffffffffffffffffffffffffffffff021916908373ffffffffffffffffffffffffffffffffffffffff16021790555050565b600061374582601160008673ffffffffffffffffffffffffffffffffffffffff1673ffffffffffffffffffffffffffffffffffffffff168152602001908152602001600020614cc190919063ffffffff16565b905092915050565b600560009054906101000a900473ffffffffffffffffffffffffffffffffffffffff1681565b60036020528060005260406000206000915090508060000160009054906101000a900473ffffffffffffffffffffffffffffffffffffffff16908060010154908060020154908060030154908060040154908060050154905086565b6137d76146b4565b73ffffffffffffffffffffffffffffffffffffffff16600160009054906101000a900473ffffffffffffffffffffffffffffffffffffffff1673ffffffffffffffffffffffffffffffffffffffff1614613899576040517f08c379a00000000000000000000000000000000000000000000000000000000081526004018080602001828103825260208152602001807f4f776e61626c653a2063616c6c6572206973206e6f7420746865206f776e657281525060200191505060405180910390fd5b600560009054906101000a900473ffffffffffffffffffffffffffffffffffffffff1673ffffffffffffffffffffffffffffffffffffffff166323b872dd3330600560009054906101000a900473ffffffffffffffffffffffffffffffffffffffff1673ffffffffffffffffffffffffffffffffffffffff166318160ddd6040518163ffffffff1660e01b815260040160206040518083038186803b15801561394157600080fd5b505afa158015613955573d6000803e3d6000fd5b505050506040513d602081101561396b57600080fd5b81019080805190602001909291905050506040518463ffffffff1660e01b8152600401808473ffffffffffffffffffffffffffffffffffffffff1673ffffffffffffffffffffffffffffffffffffffff1681526020018373ffffffffffffffffffffffffffffffffffffffff1673ffffffffffffffffffffffffffffffffffffffff1681526020018281526020019350505050602060405180830381600087803b158015613a1857600080fd5b505af1158015613a2c573d6000803e3d6000fd5b505050506040513d6020811015613a4257600080fd5b810190808051906020019092919050505050613a5f601054614479565b565b600860009054906101000a900473ffffffffffffffffffffffffffffffffffffffff1681565b600c5481565b613a956146b4565b73ffffffffffffffffffffffffffffffffffffffff16600160009054906101000a900473ffffffffffffffffffffffffffffffffffffffff1673ffffffffffffffffffffffffffffffffffffffff1614613b57576040517f08c379a00000000000000000000000000000000000000000000000000000000081526004018080602001828103825260208152602001807f4f776e61626c653a2063616c6c6572206973206e6f7420746865206f776e657281525060200191505060405180910390fd5b6009544211613bb1576040517f08c379a00000000000000000000000000000000000000000000000000000000081526004018080602001828103825260588152602001806152846058913960600191505060405180910390fd5b80600b819055507ffb46ca5a5e06d4540d6387b930a7c978bce0db5f449ec6b3f5d07c6e1d44f2d3600b546040518082815260200191505060405180910390a150565b6000806017541415613c0a57600d549050613c7f565b613c7c613c6b601754613c5d670de0b6b3a7640000613c4f600a54613c41600c54613c33612cb7565b61461690919063ffffffff16565b61432190919063ffffffff16565b61432190919063ffffffff16565b61442f90919063ffffffff16565b600d546143a790919063ffffffff16565b90505b90565b6000613cd582601460008673ffffffffffffffffffffffffffffffffffffffff1673ffffffffffffffffffffffffffffffffffffffff168152602001908152602001600020614cc190919063ffffffff16565b905092915050565b6000601754905090565b600d5481565b600e5481565b600460009054906101000a900473ffffffffffffffffffffffffffffffffffffffff1681565b60095481565b600660009054906101000a900473ffffffffffffffffffffffffffffffffffffffff1681565b600954421115613db157613d656001600f546143a790919063ffffffff16565b600f81905550600060105490506000600190505b600f548111613da557613d9660028361442f90919063ffffffff16565b91508080600101915050613d79565b50613daf81614479565b505b3373ffffffffffffffffffffffffffffffffffffffff16613dd1826145c2565b73ffffffffffffffffffffffffffffffffffffffff1614613e3d576040517f08c379a00000000000000000000000000000000000000000000000000000000081526004018080602001828103825260218152602001806153266021913960400191505060405180910390fd5b613e4681611005565b6000600360008381526020019081526020016000209050600081600301549050600082600201549050613e966001601b60008481526020019081526020016000205461461690919063ffffffff16565b601b600083815260200190815260200160002081905550613ec28260175461461690919063ffffffff16565b60178190555060006018600086815260200190815260200160002081905550600760009054906101000a900473ffffffffffffffffffffffffffffffffffffffff1673ffffffffffffffffffffffffffffffffffffffff166342842e0e3033876040518463ffffffff1660e01b8152600401808473ffffffffffffffffffffffffffffffffffffffff1673ffffffffffffffffffffffffffffffffffffffff1681526020018373ffffffffffffffffffffffffffffffffffffffff1673ffffffffffffffffffffffffffffffffffffffff1681526020018281526020019350505050600060405180830381600087803b158015613fbe57600080fd5b505af1158015613fd2573d6000803e3d6000fd5b5050505061402784601160003373ffffffffffffffffffffffffffffffffffffffff1673ffffffffffffffffffffffffffffffffffffffff1681526020019081526020016000206147da90919063ffffffff16565b5061403f84600060126147f49092919063ffffffff16565b5060036000858152602001908152602001600020600080820160006101000a81549073ffffffffffffffffffffffffffffffffffffffff02191690556001820160009055600282016000905560038201600090556004820160009055600582016000905550503373ffffffffffffffffffffffffffffffffffffffff167f844785200c614fc2d4f740a214dd53d14b1c3dbb1202c386ed0fe703ad1f2dbc856040518082815260200191505060405180910390a250505050565b6141016146b4565b73ffffffffffffffffffffffffffffffffffffffff16600160009054906101000a900473ffffffffffffffffffffffffffffffffffffffff1673ffffffffffffffffffffffffffffffffffffffff16146141c3576040517f08c379a00000000000000000000000000000000000000000000000000000000081526004018080602001828103825260208152602001807f4f776e61626c653a2063616c6c6572206973206e6f7420746865206f776e657281525060200191505060405180910390fd5b600073ffffffffffffffffffffffffffffffffffffffff168173ffffffffffffffffffffffffffffffffffffffff161415614249576040517f08c379a00000000000000000000000000000000000000000000000000000000081526004018080602001828103825260268152602001806152dc6026913960400191505060405180910390fd5b8073ffffffffffffffffffffffffffffffffffffffff16600160009054906101000a900473ffffffffffffffffffffffffffffffffffffffff1673ffffffffffffffffffffffffffffffffffffffff167f8be0079c531659141344cd1fd0a4f28419497f9722a3daafe3b4186f6b6457e060405160405180910390a380600260006101000a81548173ffffffffffffffffffffffffffffffffffffffff021916908373ffffffffffffffffffffffffffffffffffffffff16021790555050565b601a6020528060005260406000206000915090505481565b60008083141561433457600090506143a1565b600082840290508284828161434557fe5b041461439c576040517f08c379a000000000000000000000000000000000000000000000000000000000815260040180806020018281038252602181526020018061536b6021913960400191505060405180910390fd5b809150505b92915050565b600080828401905083811015614425576040517f08c379a000000000000000000000000000000000000000000000000000000000815260040180806020018281038252601b8152602001807f536166654d6174683a206164646974696f6e206f766572666c6f77000000000081525060200191505060405180910390fd5b8091505092915050565b600061447183836040518060400160405280601a81526020017f536166654d6174683a206469766973696f6e206279207a65726f000000000000815250614cdb565b905092915050565b6000614483613bf4565b600d81905550614491612cb7565b600c81905550600081146144da576144a881611fc7565b601a600083815260200190815260200160002081905550600d5460196000838152602001908152602001600020819055505b6009544210614503576144f8600b548361442f90919063ffffffff16565b600a81905550614565565b600061451a4260095461461690919063ffffffff16565b90506000614533600a548361432190919063ffffffff16565b905061455c600b5461454e83876143a790919063ffffffff16565b61442f90919063ffffffff16565b600a8190555050505b42600c81905550614581600b54426143a790919063ffffffff16565b6009819055507fde88a922e0d3b88b24e9623efeb464919c6bf9f66857a65e2bfcf2ce87a9433d826040518082815260200191505060405180910390a15050565b600061460f826040518060400160405280601b81526020017f717565727920666f72206e6f6e6578697374656e7420746f6b656e00000000008152506012614da19092919063ffffffff16565b9050919050565b600061465883836040518060400160405280601e81526020017f536166654d6174683a207375627472616374696f6e206f766572666c6f770000815250614dc0565b905092915050565b60006146ad826040518060400160405280601b81526020017f717565727920666f72206e6f6e6578697374656e7420746f6b656e00000000008152506015614da19092919063ffffffff16565b9050919050565b600033905090565b600260149054906101000a900460ff1661473e576040517f08c379a00000000000000000000000000000000000000000000000000000000081526004018080602001828103825260148152602001807f5061757361626c653a206e6f742070617573656400000000000000000000000081525060200191505060405180910390fd5b6000600260146101000a81548160ff0219169083151502179055507f5db9ee0a495bf2e6ff9c91a7834c1ba4fdd244a5e8aa4e537bd38aeae4b073aa6147826146b4565b604051808273ffffffffffffffffffffffffffffffffffffffff1673ffffffffffffffffffffffffffffffffffffffff16815260200191505060405180910390a1565b60006147d382600001614e80565b9050919050565b60006147ec836000018360001b614e91565b905092915050565b6000614820846000018460001b8473ffffffffffffffffffffffffffffffffffffffff1660001b614f79565b90509392505050565b600080600460009054906101000a900473ffffffffffffffffffffffffffffffffffffffff1673ffffffffffffffffffffffffffffffffffffffff1663c5e70ba8846040518263ffffffff1660e01b81526004018082815260200191505060206040518083038186803b15801561489f57600080fd5b505afa1580156148b3573d6000803e3d6000fd5b505050506040513d60208110156148c957600080fd5b810190808051906020019092919050505090506000600460009054906101000a900473ffffffffffffffffffffffffffffffffffffffff1673ffffffffffffffffffffffffffffffffffffffff16632e5e519e856040518263ffffffff1660e01b81526004018082815260200191505060206040518083038186803b15801561495157600080fd5b505afa158015614965573d6000803e3d6000fd5b505050506040513d602081101561497b57600080fd5b810190808051906020019092919050505090506149d9816149cb6149bc600e546149ae878b61432190919063ffffffff16565b61442f90919063ffffffff16565b886143a790919063ffffffff16565b6143a790919063ffffffff16565b9250505092915050565b600080600460009054906101000a900473ffffffffffffffffffffffffffffffffffffffff1673ffffffffffffffffffffffffffffffffffffffff16639c515ac4846040518263ffffffff1660e01b81526004018082815260200191505060206040518083038186803b158015614a5957600080fd5b505afa158015614a6d573d6000803e3d6000fd5b505050506040513d6020811015614a8357600080fd5b810190808051906020019092919050505090506000600460009054906101000a900473ffffffffffffffffffffffffffffffffffffffff1673ffffffffffffffffffffffffffffffffffffffff1663870f4414856040518263ffffffff1660e01b81526004018082815260200191505060206040518083038186803b158015614b0b57600080fd5b505afa158015614b1f573d6000803e3d6000fd5b505050506040513d6020811015614b3557600080fd5b81019080805190602001909291905050509050614b9381614b85614b76600e54614b68878b61432190919063ffffffff16565b61442f90919063ffffffff16565b8861461690919063ffffffff16565b61461690919063ffffffff16565b9250505092915050565b6000614baf836000018360001b615055565b905092915050565b600260149054906101000a900460ff1615614c3a576040517f08c379a00000000000000000000000000000000000000000000000000000000081526004018080602001828103825260108152602001807f5061757361626c653a207061757365640000000000000000000000000000000081525060200191505060405180910390fd5b6001600260146101000a81548160ff0219169083151502179055507f62e78cea01bee320cd4e420270b5ea74000d11b0c9f74754ebdbfc544b05a258614c7e6146b4565b604051808273ffffffffffffffffffffffffffffffffffffffff1673ffffffffffffffffffffffffffffffffffffffff16815260200191505060405180910390a1565b6000614cd083600001836150c5565b60001c905092915050565b60008083118290614d87576040517f08c379a00000000000000000000000000000000000000000000000000000000081526004018080602001828103825283818151815260200191508051906020019080838360005b83811015614d4c578082015181840152602081019050614d31565b50505050905090810190601f168015614d795780820380516001836020036101000a031916815260200191505b509250505060405180910390fd5b506000838581614d9357fe5b049050809150509392505050565b6000614db4846000018460001b84615148565b60001c90509392505050565b6000838311158290614e6d576040517f08c379a00000000000000000000000000000000000000000000000000000000081526004018080602001828103825283818151815260200191508051906020019080838360005b83811015614e32578082015181840152602081019050614e17565b50505050905090810190601f168015614e5f5780820380516001836020036101000a031916815260200191505b509250505060405180910390fd5b5060008385039050809150509392505050565b600081600001805490509050919050565b60008083600101600084815260200190815260200160002054905060008114614f6d5760006001820390506000600186600001805490500390506000866000018281548110614edc57fe5b9060005260206000200154905080876000018481548110614ef957fe5b9060005260206000200181905550600183018760010160008381526020019081526020016000208190555086600001805480614f3157fe5b60019003818190600052602060002001600090559055866001016000878152602001908152602001600020600090556001945050505050614f73565b60009150505b92915050565b60008084600101600085815260200190815260200160002054905060008114156150205784600001604051806040016040528086815260200185815250908060018154018082558091505060019003906000526020600020906002020160009091909190915060008201518160000155602082015181600101555050846000018054905085600101600086815260200190815260200160002081905550600191505061504e565b8285600001600183038154811061503357fe5b90600052602060002090600202016001018190555060009150505b9392505050565b6000615061838361523e565b6150ba5782600001829080600181540180825580915050600190039060005260206000200160009091909190915055826000018054905083600101600084815260200190815260200160002081905550600190506150bf565b600090505b92915050565b600081836000018054905011615126576040517f08c379a00000000000000000000000000000000000000000000000000000000081526004018080602001828103825260228152602001806152626022913960400191505060405180910390fd5b82600001828154811061513557fe5b9060005260206000200154905092915050565b6000808460010160008581526020019081526020016000205490506000811415839061520f576040517f08c379a00000000000000000000000000000000000000000000000000000000081526004018080602001828103825283818151815260200191508051906020019080838360005b838110156151d45780820151818401526020810190506151b9565b50505050905090810190601f1680156152015780820380516001836020036101000a031916815260200191505b509250505060405180910390fd5b5084600001600182038154811061522257fe5b9060005260206000209060020201600101549150509392505050565b60008083600101600084815260200190815260200160002054141590509291505056fe456e756d657261626c655365743a20696e646578206f7574206f6620626f756e647350726576696f7573207265776172647320706572696f64206d75737420626520636f6d706c657465206265666f7265206368616e67696e6720746865206475726174696f6e20666f7220746865206e657720706572696f644f776e61626c653a206e6577206f776e657220697320746865207a65726f20616464726573735374616b696e673a20706f6f6c204e465420616c6c6f77616e63652069732066616c73657769746864726177206f6620746f6b656e2074686174206973206e6f74206f776e5374616b696e673a204d696e65724e465420616c6c6f77616e63652069732066616c7365536166654d6174683a206d756c7469706c69636174696f6e206f766572666c6f7743616e6e6f7420776974686472617720746865207374616b696e67206f72207265776172647320746f6b656e735374616b696e673a2062616c616e636520717565727920666f7220746865207a65726f20616464726573734f776e61626c653a2063616c6c6572206973206e6f7420746865206e6577206f776e6572a264697066735822122097354ab489d286e80b99c3b460188d3f44d52a04d4ee15e0e520e9e50969bbe464736f6c63430006060033",
  "linkReferences": {},
  "deployedLinkReferences": {}
}